:100000000C942A000C9447000C9447000C94470071
:100010000C9447000C9447000C9460030C94470028
:100020000C9447000C94EC030C9423030C941903D8
:100030000C9447000C9447000C9447000C94470024
:100040000C9447000C9447000C9447000C94470014
:100050000C94470011241FBECFE5D8E0DEBFCDBF12
:1000600010E0A0E6B0E0EEE9F8E002C005900D92E5
:10007000A837B107D9F720E0A8E7B0E001C01D928A
:10008000AA38B207E1F70E945A020C944D040C946E
:100090000000442379F1413009F05FC0813079F0EC
:1000A00028F08230A9F08330E1F008952AB381E08E
:1000B00090E001C0880F6A95EAF7822B2CC027B325
:1000C00081E090E001C0880F6A95EAF7822B2EC08C
:1000D00024B381E090E001C0880F6A95EAF7822B93
:1000E00030C021B381E090E001C0880F6A95EAF743
:1000F000822B32C0813089F028F08230C9F0833001
:1001000011F108952AB381E090E001C0880F6A954B
:10011000EAF7809582238ABB089527B381E090E0B7
:1001200001C0880F6A95EAF78095822387BB0895FE
:1001300024B381E090E001C0880F6A95EAF78095CA
:10014000822384BB089521B381E090E001C0880F31
:100150006A95EAF78095822381BB0895442379F15B
:10016000413009F05FC0813079F028F08230A9F089
:100170008330E1F008952BB381E090E001C0880F57
:100180006A95EAF7822B2CC028B381E090E001C089
:10019000880F6A95EAF7822B2EC025B381E090E0A4
:1001A00001C0880F6A95EAF7822B30C022B381E044
:1001B00090E001C0880F6A95EAF7822B32C0813047
:1001C00089F028F08230C9F0833011F108952BB303
:1001D00081E090E001C0880F6A95EAF7809582235C
:1001E0008BBB089528B381E090E001C0880F6A9529
:1001F000EAF78095822388BB089525B381E090E0DB
:1002000001C0880F6A95EAF78095822385BB08951F
:1002100022B381E090E001C0880F6A95EAF78095EB
:10022000822382BB0895CF93C82F40E061E081E034
:100230000E94AE0040E062E081E00E94AE0040E03B
:1002400063E081E00E94AE008BB39C2F907F8F70A3
:10025000892B8BBB41E063E081E00E94AE008FE917
:100260009FE00197F1F700C0000040E063E081E00B
:100270000E94AE002BB330E1C39FC0011124922F26
:100280009F70892B8BBB41E063E081E00E94AE0050
:100290008FE99FE00197F1F700C0000040E063E0C4
:1002A00081E00E94AE008FE19EE40197F1F700C06B
:1002B0000000CF91089541E061E081E00E94490093
:1002C00041E062E081E00E94490041E063E081E0BA
:1002D0000E94490041E064E080E00E94490041E062
:1002E00065E080E00E94490041E066E080E00E9415
:1002F000490041E067E080E00E9449002FEF81EE75
:1003000094E0215080409040E1F700C0000083E37A
:100310000E94130182E30E94130188E20E941301EC
:100320008CE00E94130181E00E94130186E00E948C
:10033000130182E00C941301CF93C82F41E061E0D8
:1003400081E00E94AE0040E062E081E00E94AE00E9
:1003500040E063E081E00E94AE008C2F807F8BBB89
:1003600041E063E081E00E94AE008FE99FE00197E9
:10037000F1F700C0000040E063E081E00E94AE00C1
:10038000C295C07FCBBB41E063E081E00E94AE003C
:100390008FE99FE00197F1F700C0000040E063E0C3
:1003A00081E00E94AE008FE19EE40197F1F700C06A
:1003B0000000CF9108950F931F93CF938C01C0E05D
:1003C000F801EC0FF11D8081882321F00E949C012F
:1003D000CF5FF6CFCF911F910F910895CF93DF9309
:1003E00000D0CDB7DEB790E8998390EC9A83FE01F8
:1003F000E80FF11D8181860F0F900F90DF91CF9153
:100400000C94130181E00C9413014F925F926F9250
:100410007F928F929F92AF92BF92CF92DF92EF9294
:10042000FF924B015C0161E070E080E090E03AE017
:10043000432E512C612C712C81149104A104B10420
:10044000A9F0AAE0B0E09B01AC010E9433046B016B
:100450007C01C501B401A30192010E9411046C0D3D
:100460007D1D8E1D9F1D49015A01E6CF2AE0C22E37
:10047000D12CE12CF12C623071058105910568F0D9
:10048000A70196010E94110449015A0180E3860FD9
:100490000E949C01B401C501EECFFF90EF90DF9068
:1004A000CF90BF90AF909F908F907F906F905F9014
:1004B0004F9008950E945B010E94F5020E940C0378
:1004C0000E94D80241E061E080E00E94490086E499
:1004D0000E94F2020E94E8020E940203812C84E240
:1004E000982E84EFA82EB12C809184008330E1F700
:1004F00040917C0050917D0060917E0070917F0062
:100500008091800090918100A0918200B091830041
:10051000C0907800D0907900E0907A00F0907B0055
:100520004090800050908100609082007090830025
:10053000C418D508E608F7089A01AB01281B390B47
:100540004A0B5B0BA4E6B0E00E943304A7019601BE
:100550000E94110429013A0180E690E00E94DB012B
:10056000C301B2010E94050260E081E00E94EE0139
:100570008CE690E00E94DB01C501B401A701960161
:100580000E941104CA01B9010E9405022FEF89E6F9
:1005900098E1215080409040E1F700C000000E94A7
:1005A000020289B7806289BF89B7846089BF9CCF06
:1005B00083B78F7783BF83B78F7B83BF83B7886011
:1005C00083BF8FB780688FBF89B7826089BF089566
:1005D00083B78E7F83BF83B78D7F83BF83B78460EC
:1005E00083BF08958FEF8CBF08958FB58E7F8FBD29
:1005F0008FB58D7F8FBD8EB5877F8EBD8EB58F7E7B
:100600008EBD08958EB581608EBD8EB58D7F8EBDF9
:100610008EB58B7F8EBD08958E9817BC16BC8EB597
:1006200080648EBD89B7806289BF8FB780688FBFB5
:1006300008951F920F920FB60F9211240F900FBEC4
:100640000F901F9018951F920F920FB60F921124C2
:100650002F933F934F935F936F937F938F939F93CA
:10066000AF93BF93EF93FF938091890081110AC0EC
:1006700040E061E00E94AE0083EB8CBF81E080939C
:1006800089000DC080918900813049F441E061E02A
:1006900080E00E94AE008CE68CBF10928900FF9132
:1006A000EF91BF91AF919F918F917F916F915F91EA
:1006B0004F913F912F910F900FBE0F901F90189563
:1006C0001F920F920FB60F9211242F933F934F93C7
:1006D0005F936F937F938F939F93AF93BF93EF93AA
:1006E000FF93809184008F5F8093840080918400C9
:1006F0008130B9F410928500109286001092870024
:100700001092880086B597B5A0E0B0E08093800095
:1007100090938100A0938200B09383008EB58F7B6D
:1007200022C080918400823001F5E6B5F7B52091B2
:100730008500309186004091870050918800AFEF8E
:10074000BFEF0E943304DC01CB018E0F9F1FA11D60
:10075000B11D80937C0090937D00A0937E00B093A8
:100760007F008EB580648EBD26C08091840083306A
:1007700011F5E6B5F7B520918500309186004091DE
:10078000870050918800AFEFBFEF0E943304DC0177
:10079000CB018E0F9F1FA11DB11D809378009093F8
:1007A0007900A0937A00B0937B0089B78F7D89BFD1
:1007B00089B78B7F89BFFF91EF91BF91AF919F91D7
:1007C0008F917F916F915F914F913F912F910F90FA
:1007D0000FBE0F901F9018951F920F920FB60F9299
:1007E00011248F939F93AF93BF9380918500909135
:1007F0008600A0918700B09188000196A11DB11DCF
:100800008093850090938600A0938700B093880022
:10081000BF91AF919F918F910F900FBE0F901F903E
:100820001895A1E21A2EAA1BBB1BFD010DC0AA1F21
:10083000BB1FEE1FFF1FA217B307E407F50720F049
:10084000A21BB30BE40BF50B661F771F881F991FC4
:100850001A9469F760957095809590959B01AC010D
:10086000BD01CF0108950E943E04A59F900DB49F45
:10087000900DA49F800D911D11240895A29FB00199
:10088000B39FC001A39F700D811D1124911DB29FC4
:0E089000700D811D1124911D0895F894FFCF65
:10089E0044555459204359434C453A0046726571AC
:0808AE0075656E63793A0000E4
:00000001FF
